S01700004763634170706C69636174696F6E322E737265635A
S11300000C9434000C9449000C9449000C9449005D
S11300100C9449000C9449000C9449000C94490038
S11300200C9449000C9449000C9449000C94490028
S11300300C9449000C9449000C9449000C94490018
S11300400C9449000C9449000C9449000C94490008
S11300500C9449000C9449000C9449000C944900F8
S11300600C9449000C94490011241FBECFEFD8E032
S1130070DEBFCDBF11E0A0E0B1E0EAE1F1E002C0F3
S113008005900D92A830B107D9F70E944B000C944B
S11300908B000C940000CF93DF93CDB7DEB7289785
S11300A00FB6F894DEBF0FBECDBF8FEF8AB988E0DC
S11300B0E0E0F1E0DE01119601900D928A95E1F7FE
S11300C080E090E024C08430910501F187309105EF
S11300D0E9F0E1E0F0E0EC0FFD1FE80FF91F3081DB
S11300E0E7E0F0E0E81BF90B41E050E04C0F5D1F46
S11300F0E40FF51F2081232B2BB95FEF29E638E1AC
S1130100515020403040E1F700C000000196883093
S10D01109105CCF2D5CFF894FFCF8F
S10B011A8040201008040201DA
S9030000FC
