S00B00006877312E7372656309
S11300000C9434000C943E000C943E000C943E007E
S11300100C943E000C943E000C943E000C943E0064
S11300200C943E000C943E000C943E000C943E0054
S11300300C943E000C943E000C943E000C943E0044
S11300400C943E000C943E000C943E000C943E0034
S11300500C943E000C943E000C943E000C943E0024
S11300600C943E000C943E0011241FBECFEFD8E048
S1130070DEBFCDBF0E9440000C9468000C940000C9
S113008081E084B984E084B980E284B981E085B9EF
S11300902FEF89E698E1215080409040E1F700C0BD
S11300A0000084E085B92FEF89E698E12150804073
S11300B09040E1F700C0000080E285B92FEF89E6A7
S11300C098E1215080409040E1F700C00000DECF6D
S10700D0F894FFCFCE
S9030000FC
