S01700004763634170706C69636174696F6E332E7372656359
S11300000C9434000C943E000C943E000C943E007E
S11300100C943E000C943E000C943E000C943E0064
S11300200C943E000C943E000C943E000C943E0054
S11300300C943E000C943E000C943E000C943E0044
S11300400C943E000C943E000C943E000C943E0034
S11300500C943E000C943E000C943E000C943E0024
S11300600C943E000C943E0011241FBECFEFD8E048
S1130070DEBFCDBF0E9440000C946B000C940000C6
S11300808FEF8AB980E090E022C084309105F1F0CE
S113009087309105D9F021E030E0082E02C0220F0C
S11300A0331F0A94E2F740E850E0082E02C0559549
S11300B047950A94E2F7242B2BB92FEF39E648E150
S11300C0215030404040E1F700C0000001968830E4
S10D00D09105DCF2D7CFF894FFCFBE
S9030000FC
